:020000040800F2
:10000000B0050020A1010008C714000897130008DC
:10001000C51400082D070008C51D000800000000D9
:10002000000000000000000000000000251600088D
:100030002F07000800000000D9150008BD160008B1
:10004000BB010008BB010008BB010008BB010008A0
:10005000BB010008BB010008BB010008BB01000890
:10006000BB010008BB010008BB010008BB01000880
:10007000BB010008BB010008BB010008BB01000870
:10008000BB010008BB010008BB010008BB01000860
:10009000BB010008BB010008BB010008BB01000850
:1000A000BB010008BB010008BB010008BB01000840
:1000B000BB01000815170008BB010008BB010008C0
:1000C000BB010008BB010008BB010008BB01000820
:1000D000BB010008991D0008BB010008BB01000816
:1000E000BB010008BB010008BB010008BB01000800
:1000F000BB010008BB010008BB010008BB010008F0
:10010000BB010008BB010008BB010008BB010008DF
:10011000BB010008BB010008BB010008BB010008CF
:10012000BB010008BB010008BB010008BB010008BF
:10013000BB010008BB010008BB010008BB010008AF
:10014000BB010008BB010008BB010008BB0100089F
:10015000BB010008BB010008BB010008BB0100088F
:10016000BB010008BB010008BB010008BB0100087F
:10017000BB010008BB010008BB0100080000000033
:10018000BB010008BB010008DFF810D000F0A2F9A5
:1001900000480047911E0008AFF30080B005002022
:1001A0000648804706480047FEE7FEE7FEE7FEE711
:1001B000FEE7FEE7FEE7FEE7FEE7FEE7C116000802
:1001C000890100082DE9FE4F81EA030404F0004490
:1001D00021F0004100944FF0000B23F0004350EA5F
:1001E00001045ED052EA03045BD0C3F30A54C1F3A6
:1001F0000A552C44A4F2F3340194A0FB0254C1F339
:10020000130141F48011C3F3130343F4801301FB82
:10021000024400FB034E840A970A44EA815447EAE9
:100220008357A4FB076802958D0A05FB07854FEAF3
:10023000932C04FB0C542705029D4FEA065847EA0D
:100240001637B5EB08056EEB070C870E920E47EAE2
:10025000811742EA8312A7FB0201B6EB0B0164EBA4
:1002600000042B0D43EA0C335E1844EB1C50DA46B5
:100270005146E7FB0201C5F313044FEA0B3343EA8F
:1002800014534FEA0432019C43EA0603A4F10C0420
:100290000294009CCDE900B400F0CDF803B0BDE8B5
:1002A000F08F00200146F9E72DE9F04D81EA0304C3
:1002B00004F0004B21F0004514464FF0000A23F0F3
:1002C000004150EA050220D054EA01021DD0C5F3D6
:1002D0000A570246C5F31303C1F31300C1F30A56CC
:1002E00040F4801543F48013A7EB0608101BD64694
:1002F00008F2FD3873EB050002D308F1010801E0B4
:1003000092185B41B8F1000F03DA00200146BDE806
:10031000F08D00204FF48011064684460EE0171B36
:1003200073EB050705D3121B63EB050306434CEA89
:10033000010C49084FEA300092185B4150EA01076E
:10034000EDD152EA030012D082EA040083EA0501EB
:10035000084305D0101BAB4106D20122002306E062
:1003600000224FF0004302E06FF0010253101AEB3D
:1003700006004CEB085110EB0A0041EB0B01BDE805
:10038000F04D00F049B80EB540F233410291002122
:10039000CDE900110A460B4600F04DF803B000BD50
:1003A000C1F30A5210B5C1F3130140F2FF3341F417
:1003B00080119A4201DA002010BD40F233439A4284
:1003C000A2F2334203DC524200F016F810BD904016
:1003D00010BD00F0004230F000400AD0C10D01F520
:1003E0006071C0F3160042EA0151C2084007114390
:1003F0007047002001467047202A04DB203A21FA8A
:1004000002F00021704721FA02F3D040C2F120022D
:10041000914008431946704710B5141E73F100044B
:1004200008DA401C41F1000192185B411A4301D1E6
:1004300020F0010010BD2DE9F04D92469B4611B110
:10044000B1FA81F202E0B0FA80F22032904600F078
:1004500053F804460F4640EA0A0041EA0B015346AE
:100460005A46084313D0114653EA010019D0C8F187
:1004700040025046FFF7C0FF05460E46504659461B
:10048000424600F039F8084305D0012004E0204638
:100490003946BDE8F08D0020054346EAE0762C435E
:1004A00037430A986305E40AA0EB08000022FD0A1E
:1004B00044EA47540A3002D500200146E9E7010525
:1004C00010196941DDE9084500196941BDE8F04DA1
:1004D000A2E70000064C074D06E0E06840F001038B
:1004E00094E8070098471034AC42F6D3FFF750FE6B
:1004F0006820000888200008202A04DB203A00FA3F
:1005000002F1002070479140C2F1200320FA03F36A
:10051000194390407047000030B5194887B0016812
:1005200041F001010160016801F0010105910168DC
:1005300041F0100101600068012400F010000590F6
:100540000C20CDE90004022569460E48CDE902459C
:1005500000F000F9A020CDE9000469460A48CDE981
:10056000024500F0F7F8642001F060FC2102002051
:1005700000F0A4F80A2001F059FC07B030BD0000DB
:100580003038024000100240000002402DE9F041E6
:100590000646C2F38D3040F48044C2F30D000D4690
:1005A00040F480474FF40051304600F087F8394658
:1005B000304600F083F82146304600F07FF845F4DD
:1005C00000513046BDE8F04100F078B82DE9F04127
:1005D00080462DED068B10EE100A0025B0EE60AAC5
:1005E000314F9FED329B9FED338B0E462C46B84228
:1005F00013DAB5EEC00AF1EE10FA0ED010EE100AC2
:10060000FFF7E7FE53EC192BFFF74EFE53EC182BC8
:10061000FFF7D8FDFFF7C4FE85B21AEE100AB84204
:1006200013DAB5EEC0AAF1EE10FA0ED01AEE100AE7
:10063000FFF7CFFE53EC192BFFF736FE53EC182BC8
:10064000FFF7C0FDFFF7ACFE84B2C6F38D3040F477
:100650008047C6F30D0040F48046C5F30B0040F41C
:100660004045C4F30B0040F440444FF404510020D3
:1006700000F024F83146002000F020F83946002030
:1006800000F01CF82946012000F018F8214602204D
:1006900000F014F8BDEC068B48F400510020BDE8D2
:1006A000F04100F00BB800000000B443000000006F
:1006B000008076400000000000FEAF4070B51A4C8C
:1006C0000D4690B1012823D002282CD10022082108
:1006D000204600F024F9284600F080FF012208217E
:1006E0002046BDE8704000F01AB9002204212046DF
:1006F00000F015F900220821204600F010F92846E4
:1007000000F06CFF01220421204600F008F9E5E723
:1007100000220421204600F002F9284600F05EFF86
:1007200001220421DCE770BD00100240FEE77047A3
:1007300090F83510022903D08021416501207047CF
:10074000052180F835100068016821F00101016081
:10075000002070472DE9F84FDFF88C91002209F155
:10076000040A0AF1040B4FF00F080BF1040E0126E6
:100770000B6896403340B34271D14C68022C01D0D3
:10078000122C11D1D40800EB84073D6A5407E40E03
:1007900008FA04FC25EA0C05D1F810C00CFA04FC98
:1007A0004CEA050CC7F820C007685400032591F8EF
:1007B00004C0A5400CF0030CAF430CFA04FC4CEA57
:1007C000070CC0F800C04F68012F05D0022F03D0DE
:1007D000112F01D0122F11D18768D1F80CC0AF436F
:1007E0000CFA04FC4CEA070CC0F808C04768B74391
:1007F0000E79C6F3001696403E434660C668AE4387
:100800008D68A5403543C5604C68E40065D5374C1C
:10081000256845F480452560246822F0030504F42A
:1008200080440094324C2E19D6F808789407250F8E
:1008300008FA05F4A7432F4CA04201D1002424E07C
:100840002D4CA04201D101241FE02C4CA04201D12B
:1008500002241AE02A4CA04202D1032415E03CE015
:10086000284CA04201D104240FE0274CA04201D122
:1008700005240AE0254CA04201D1062405E0244CC1
:10088000A04201D1072400E00824AC403C43C6F854
:100890000848D9F800404D464E689C43F60300D501
:1008A0001C432C60DAF8004055464E689C43B60362
:1008B00000D51C432C60DBF800405D464E689C432D
:1008C000F60200D51C432C60DEF8004075464E68E9
:1008D0009C43B60200D51C432C60521C102AFFF426
:1008E00046AFBDE8F88F0000003C014044380240AC
:1008F00000300140000002400004024000080240B5
:10090000000C024000100240001402400018024097
:10091000001C02400069084000D0012070470AB165
:10092000816170470904FBE701480068000C7047CB
:10093000002004E001480068704700001400002017
:1009400002480168491C0160704700001400002043
:10095000094810B5016841F400710160016841F473
:1009600080610160052000F049F80F2000F006F8D2
:1009700000F018F8002010BD003C024010B50446FD
:1009800007484FF47A710068B0FBF1F000F000FB0B
:1009900000222146501E00F011F8002010BD00007A
:1009A00010000020704700F01F0201219140400913
:1009B000800000F1E020C0F800117047F0B40E4B49
:1009C0001B68C3F30223C3F10704042C00D90424D9
:1009D0001D1D072D01D2002300E0DB1E012606FAB3
:1009E00004F56D1E0D409D409E40761E164045EA62
:1009F0000601F0BC00F068BD0CED00E0064A00F016
:100A0000070110684FF6FF03184040EA0120034930
:100A100008431060704700000CED00E00000FA058C
:100A20002DE9F047DFF85C9104460E46D9F8000046
:100A300000F00F01F0B28046B14207D289F8000001
:100A4000D9F8000000F00F00B04271D120784E4F6D
:100A5000800705D53868A16820F0F00008433860A9
:100A60002078C00756D048496068083901281AD054
:100A700002281BD0032819D009688907002957DAF2
:100A8000396821F0030101433960FFF753FF054640
:100A9000606841F28831012811D002281CD0032857
:100AA0008A4625D032E009688903E7E709688901A9
:100AB000E4E7FFF73FFF411B514501D923E08A4698
:100AC0003868C0F381000128F3D123E0FFF732FF3B
:100AD000411B514501D916E08A463868C0F38100B0
:100AE0000228F3D116E0FFF725FF411B51450AD834
:100AF0003868C0F381000328F5D10BE0FFF71AFF37
:100B0000411B514502D90320BDE8F087386810F039
:100B10000C0FF3D1D9F80010484601F00F01B14293
:100B200008D980F80080006800F00F00B04201D0C2
:100B30000120E9E72078400705D53868E16820F40E
:100B4000E050084338602078000706D538682169EE
:100B500020F4604040EAC100386000F04BF839688A
:100B6000F02292FAA2F201F0F001B2FA82F2D14040
:100B7000064A515CC840064908600F20FFF7FEFE98
:100B80000020C1E7003C0240083802405020000825
:100B90001000002008480949006809684FF4E05235
:100BA00092FAA2F201F4E051B2FA82F2D140044A80
:100BB000515CC84070470000100000200838024017
:100BC0006020000808480949006809684FF460423D
:100BD00092FAA2F201F46041B2FA82F2D140044AE0
:100BE000515CC840704700001000002008380240E7
:100BF0006020000830B51948006810F00C01184852
:100C000012D0441004290ED008290DD1134A121F06
:100C10001168136801F03F015D0247F6C07304D507
:100C2000B4FBF1F003E0204630BDB0FBF1F01168F9
:100C3000194093FAA3F3B3FA83F3D94048431168F8
:100C40004FF4403292FAA2F201F44031B2FA82F249
:100C5000D140491C4900B0FBF1F030BD08380240DA
:100C60000024F4002DE9F84F04460078DFF8F4A2E0
:100C7000BD4DC00748D0DAF800105046C1F38101DD
:100C8000012908D00068C0F3810002280AD1281D7C
:100C90000068400206D52868800335D560680028C2
:100CA00070D031E06068B0F5803F10D0B0F5A02F73
:100CB000286810D020F480302860286820F4802034
:100CC00028606068A0B1FFF735FE06460CE0286892
:100CD00040F48030F4E740F480202860F7E7FFF725
:100CE00029FE801B642873D828688003F7D50BE0A1
:100CF000FFF720FE064604E0FFF71CFE801B642879
:100D0000F1D828688003F7D42078DFF86082800764
:100D10004FF0010B4FF0000943D5DAF800105046B0
:100D200011F00C0F4FF0F80709D00068C0F38100F4
:100D300002280BD18B48001F0068400206D42868A7
:100D4000800713D5E06801281CD10FE0E068D0B11E
:100D5000C8F800B0FFF7EEFD064604E0FFF7EAFD35
:100D6000801B0228BFD828688007F7D5286897FA23
:100D7000A7F22169B2FA82F220F0F800914008430C
:100D800028600EE0EBE0C8F80090FFF7D3FD0646C0
:100D900004E0FFF7CFFD801B022819D828688007E0
:100DA000F7D42078000722D56E4F714861696C37FF
:100DB00079B1C0F800B0FFF7BDFD064604E0FFF7CB
:100DC000B9FD801B022803D838688007F7D50EE0EC
:100DD00079E0C0F80090FFF7ADFD064604E0FFF7AC
:100DE000A9FD801B02286ED838688007F7D42078C8
:100DF000400750D55B483830016841F080510160B0
:100E000000685C4F00F080500090386840F48070BB
:100E10003860FFF78FFD064604E0FFF78BFD801B6F
:100E2000022850D83868C005F7D54E4FA0686837FB
:100E300001280FD00528386810D020F00100386054
:100E4000386820F004003860A068B0B1FFF772FD88
:100E500006460EE0386840F00100F4E740F0040078
:100E60003860F7E7FFF766FD811B41F28830814269
:100E70006DD838688007F5D50DE0FFF75BFD0646B5
:100E800006E0FFF757FD811B41F2883081425ED8B2
:100E900038688007F5D4A069F0B3DAF80010C1F320
:100EA000810102295BD00228484605D0C8F86000BD
:100EB000FFF740FD04464DE04746C8F86000FFF7E5
:100EC00039FD064605E042E0FFF734FD801B0228AD
:100ED0003DD828688001F7D4D4E90701084347F6D4
:100EE000C07292FAA2F2616AB2FA82F29140A26AE8
:100EF0004FF0FF3303EB52024FF4403393FAA3F366
:100F0000B3FA83F39A4011434FF0706292FAA2F25F
:100F10000843B2FA82F200E01FE0E16A9140084320
:100F20001049091F0860C7F860B0FFF703FD0446C9
:100F300004E0FFF7FFFC001B022808D828688001A6
:100F4000F7D50AE0FFF7F6FC001B022802D90320C0
:100F5000BDE8F88F28688001F4D40020F8E701206C
:100F6000F6E700000838024000380240000047421F
:100F7000800E4742007000404FF0E02104280869CD
:100F800003D020F004000861704740F00400FAE745
:100F900010B5401EB0F1807F01D3012010BD4FF08D
:100FA000E02460610F21601700F08EFA0020A0613C
:100FB00007202061002010BD70B5044690F838006D
:100FC0000D4601280DD0012684F83860022084F8EF
:100FD000390042B1042A18D0082A2AD00C2A4DD14F
:100FE00039E0022070BD206800F03CFC2068816977
:100FF00041F0080181612068816921F0040181616B
:10100000206881692A69114311E0206800F056FCCC
:101010002068816941F4006181612068816921F45F
:1010200080618161206881692A6941EA02218161C8
:1010300024E0206800F074FC2068C16941F00801D8
:10104000C1612068C16921F00401C1612068C169E2
:101050002A69114311E0206800F092FC2068C16900
:1010600041F40061C1612068C16921F48061C161FE
:101070002068C1692A6941EA0221C16184F83960A6
:10108000002084F8380070BD10B5040003D094F837
:10109000390010B107E0012010BD002084F83800AD
:1010A000204600F00CF8022084F83900211D206849
:1010B00000F06CFB012084F83900002010BD70475F
:1010C00010B504460068012200F0C0FB0848216802
:1010D000814202D00748814203D1486C40F400406D
:1010E00048642068016841F001010160002010BDE2
:1010F0000000014000040140704710F8391F40789B
:101100000843704770B5026804461068D168536997
:1011100010F00F0F50D003F0010501F49076354325
:101120005DD0C20705D0CA0503D5E26B42F00102CB
:10113000E263420705D5DA0703D0E26B42F0020210
:10114000E263820705D5DA0703D0E26B42F00402BE
:10115000E263020705D5DA0703D0E26B42F008022A
:10116000E263E26B002A33D0800604D5880602D5FC
:10117000204600F043FC20684069E16BC0F380101A
:10118000090700D428B3204600F02AFC20684169F2
:1011900049061AD5416921F040014161606BA0B157
:1011A0001B490165606BFFF7C3FA002810D0606B24
:1011B000016DBDE870400847830610D58B060ED53B
:1011C0002046BDE8704000F019BC2046FFF794FFB0
:1011D00070BD2046FFF790FF0020E06370BD03065E
:1011E00006D50B0604D52046BDE8704000F0A2BD30
:1011F0004006F3D54806F1D5D168204621F04001DC
:10120000D160202184F8391000F0C4F870BD0000CE
:10121000D119000870B5040004D094F839000025F5
:1012200010B106E0012070BD84F83850204600F06F
:1012300023F8242084F839002068C16821F4005183
:10124000C160204600F020FC2068016921F4904133
:1012500001612068416921F02A0141612068C1686B
:1012600041F40051C160E563202084F8390084F81E
:101270003A00002070BD000010B500681A4986B021
:1012800088422FD11948016841F0010101600068CE
:1012900000F00100059015481430016841F010017C
:1012A00001600068012100F0100005904FF400700B
:1012B00000900220CDE90101039007200C4C04901E
:1012C00069462046FFF746FA2115009169462046F7
:1012D000FFF740FA2520FFF766FB03221146252081
:1012E000FFF76CFB06B010BD001001403038024023
:1012F0000000024090F83A30202B1DD1D1B1CAB184
:1013000090F83830012B17D081628285C285002188
:10131000C163222280F83A2080F8381001684A69B7
:1013200042F001024A610068C16841F49071C160F5
:1013300000207047012070470220704730B50068D8
:10134000114988420CD1114A5088010408D4114631
:10135000440409784FF0000306D50A2901D05380D0
:1013600030BD40F400400DE00D2909D0C0F30D045C
:10137000074D401C80B229555080C728EFD830BD9A
:1013800040F48040508030BD001001401C0000201F
:101390002C0000207047FEE770B5134886B000258A
:1013A000016841F001010160016801F0010105914E
:1013B000016841F0100101600068032400F0100092
:1013C00005900120022603948DE8610069460748D4
:1013D000FFF7C0F9102003948DE8610069460448C6
:1013E000FFF7B8F906B070BD303802400000024087
:1013F000001002402DE9F04101251B4C1B4E1C4FF3
:10140000012813D0207858B110213046FFF782FA16
:1014100001280DD001213846FFF77CFA012807D0BA
:1014200010213046FFF776FAB0B11BE02570EBE7EC
:101430000A2000F0FBFC0020207010213046FFF74E
:1014400069FA012806D001213846FFF763FA01281E
:1014500008D10420BDE8F08101213846FFF75AFA8F
:1014600000B925700020F5E724000020001002409C
:1014700000000240114810B5016886B041F020011B
:10148000016000680E4C00F0200005904FF4C06031
:1014900000900120019002900320039069462046AD
:1014A000FFF758F9012251022046FFF738FA0122CE
:1014B00091022046FFF733FA06B010BD30380240E3
:1014C00000140240FEE770470907090E002806DAFB
:1014D00000F00F0000F1E02080F8141D704700F1CB
:1014E000E02080F80014704730B526488DB0002504
:1014F000016841F002010160006800F002000C90F8
:1015000020481038016841F00101016000680321A2
:1015100000F001000C904020079002200890CDE9D7
:1015200009010B9007A91848FFF714F9184C174840
:1015300020605320C4E9010541F28730C4E9030566
:101540002046FFF7A1FD602000903220CDE9010583
:101550000022694620460495FFF72EFD0322012153
:101560001D20FFF72BFA1D20FFF71DFA2068C16828
:1015700041F00101C16000212046FFF7A1FD0DB03F
:1015800030BD00004038024000000240000400402E
:10159000340100200148C078704700002500002079
:1015A00030B50B4CE278002A10D100290ED040292A
:1015B0000CD8084B02E0855C9D54521C8A42FADB31
:1015C000217000206070A0700120E07030BD00002C
:1015D0002500002070010020704700002DE9F04137
:1015E0000F4E044600254FF6FF77200401D5012257
:1015F00000E0002280213046FFF791F900222021EF
:101600003046FFF78CF907EA4404012220213046D6
:10161000FFF785F96D1CEDB2102DE6D3BDE8F08122
:10162000000002407047000070B5214C92B00025C8
:10163000266846F080562660246804F08054119491
:101640001C4C266846F48046266024680DF1240C64
:1016500004F480441194012400942404019402248D
:1016600006948CE80D006605CDE907616846FFF732
:10167000F9FA00B1FEE70CA90F2081E831004FF420
:10168000A0500F904FF48050109005210CA8FFF748
:10169000C7F900B1FEE7FFF747F941F201018842BF
:1016A00004D10548016841F48071016012B070BD39
:1016B0004038024000700040003C0240FFF740B953
:1016C0001048016841F4700101600F48016841F061
:1016D000010101600C4A00210832116002680B4BC5
:1016E0001A400260031D0A4A1A60026822F480222E
:1016F000026005480C3001600249580680390860D4
:101700007047000088ED00E000380240FFFFF6FE61
:101710001030002430B51B4B18680169C943C90754
:101720002ED1C168C943C9072AD1891E0161164952
:1017300041F28830CA78FAB14A7803F13C00805C03
:101740008A78C2F10702D04010F0010F02D04FF4A6
:10175000FA6001E04FF47A708A78521C8A708A78B5
:10176000082A09D300228A704C78641C4C704C788B
:101770000D78AC4200D3CA701968401EC862D860A8
:1017800030BD00003401002025000020F0B50268C3
:10179000234D244E244FDFF894C0254B4FF0804E4C
:1017A000A84209D0704507D0B04205D0B84203D056
:1017B000604501D0984203D122F070044A68224368
:1017C000A8421BD0704519D0B04217D0B84215D0EE
:1017D000604513D0984211D0164CA0420ED0164C42
:1017E000A0420BD0154CA04208D0154CA04205D009
:1017F000144CA04202D0144CA04203D122F44074F5
:10180000CA68224302608A68C2620A688262A84289
:1018100001D0984201D10969016301214161F0BD04
:10182000000001400004004000080040000C00409F
:1018300000040140004001400044014000480140D4
:1018400000180040001C00400020004010B501239B
:10185000046A8B409C430462036A8A401343036218
:1018600010BD000030B5026A22F001020262056A72
:10187000426883690C6823F073031C438B6825F06E
:1018800002052B430B4DA84202D00B4DA8420BD1B1
:1018900023F00805CB6822F440722B434D6923F0F6
:1018A000040315438A692A4342608461496841639D
:1018B000036230BD000001400004014030B5026AFF
:1018C00022F010020262036A426884690D6824F4FF
:1018D000E64444EA05248D6823F0200343EA051317
:1018E0000D4DA84202D00D4DA8420ED1CD6823F077
:1018F000800343EA05134D6922F4406242EA8502FF
:101900008D6923F0400342EA8502426084614968A0
:101910008163036230BD000000000140000401400B
:1019200030B5026A22F480720262036A4268C469B6
:1019300023F4007324F073050C682C438D6843EA8C
:1019400005230D4DA84202D00C4DA8420ED1CD6802
:1019500023F4006343EA05234D6922F4405242EA2E
:1019600005128D6923F4806342EA05124260C46166
:101970004968C163036230BD0000014000040140BA
:1019800030B5026A22F480520262036A4268C46976
:101990000D6824F4E64444EA05248D6823F40053DA
:1019A00043EA0533084DA84202D0084DA84204D1AD
:1019B0004D6922F4804242EA85124260C46149685E
:1019C0000164036230BD00000000014000040140DA
:1019D00010B5806B0021C185C184FFF78DFB10BD60
:1019E0000168CA6822F49072CA6001684A6922F0EC
:1019F00001024A61202180F83A10704710B590F832
:101A00003A10222901D0022010BD8168B1F5805F13
:101A100011D00169002901681FD0496801F07F03D6
:101A2000816A4A1C82620B70C18D491E0904090C2F
:101A3000C18518D026E00269816A002A02685268CE
:101A400005D0D2B20A80816A491C8162ECE7C2F3F8
:101A500008020A80816A891CF7E74A68816A4B1C80
:101A600083620A70E0E70168CA6822F49072CA6073
:101A700001684A6922F001024A61202180F83A1087
:101A8000FFF75CFC002010BD2DE9F0410446006822
:101A9000016921F44052E168114301612068C16885
:101AA00049F20C6291432369A268E5691A436369AC
:101AB0002B431A430A43C26020684169A26921F49A
:101AC00040710A434261E0696425B0F5004F974ACE
:101AD000974920684FF032083FD0884201D09042A9
:101AE0007CD1FFF76FF800EBC00101EB00106168DB
:101AF0008900B0FBF1F6FFF765F800EBC00101EBE0
:101B0000001061688900B0FBF1F0B0FBF5F06FF0F8
:101B10001801484306EB800108EB0110B0FBF5F01B
:101B200000F0F006FFF74EF800EBC00101EB0010EB
:101B300061688900B0FBF1F0B0FBF5F006EB001630
:101B4000FFF740F800EBC00101EB0010616889006D
:101B5000B0FBF1F7FFF736F8D2E0884201D09042AF
:101B60003DD1FFF72FF800EBC00101EB00106168D9
:101B70004900B0FBF1F0B0FBF5F00601FFF722F8E9
:101B800000EBC00101EB001061684900B0FBF1F708
:101B9000FFF718F800EBC00101EB00106168490085
:101BA000B0FBF1F0B0FBF5F06FF01801484307EB24
:101BB000800108EBC100B0FBF5F000F0F80006EB87
:101BC0004006FEF7FFFF00EBC00101EB001061686B
:101BD0004900B0FBF1F7FEF7F5FF3CE055E0FEF7FA
:101BE000D9FF00EBC00101EB001061684900B0FBB8
:101BF000F1F0B0FBF5F00601FEF7CCFF00EBC00101
:101C000001EB001061684900B0FBF1F7FEF7C2FF7D
:101C100000EBC00101EB001061684900B0FBF1F07E
:101C2000B0FBF5F06FF01801484307EB800108EBBB
:101C3000C100B0FBF5F000F0F80006EB4006FEF73F
:101C4000A9FF00EBC00101EB001061684900B0FB87
:101C5000F1F7FEF79FFF00EBC00101EB0010616898
:101C60004900B0FBF1F0B0FBF5F06FF0180148430C
:101C700007EB800108EBC100B0FBF5F000F00700B6
:101C8000216830448860BDE8F081FEF783FF00EBF7
:101C9000C00101EB001061688900B0FBF1F6FEF7AE
:101CA00079FF00EBC00101EB001061688900B0FB17
:101CB000F1F0B0FBF5F06FF01801484306EB80013E
:101CC00008EB0110B0FBF5F000F0F006FEF762FF44
:101CD00000EBC00101EB001061688900B0FBF1F07E
:101CE000B0FBF5F006EB0016FEF754FF00EBC00169
:101CF00001EB001061688900B0FBF1F7FEF74AFFC5
:101D000000EBC00101EB001061688900B0FBF1F04D
:101D1000B0FBF5F06FF01801484307EB800108EBCA
:101D20000110B0FBF5F000F00F00A9E7001401402E
:101D30000010014090F83910212901D0022070478D
:101D40008168B1F5805F016A0BD04A1C02620268AB
:101D500009785160C18C491E0904090CC1840ED058
:101D600017E009880268C1F3080151600169002980
:101D7000016A02D0491C0162ECE7891CFBE701689B
:101D8000CA6822F08002CA600068C16841F0400160
:101D9000C16000207047000010B50848FFF7B2F995
:101DA0000648FFF7AAF92028FAD10122044903487E
:101DB000FFF7A0FA0028F8D110BD0000F4000020C1
:101DC0001C000020FEE70000014A024900F013B8A1
:101DD0007D1E00082000002002E008C8121F08C174
:101DE000002AFAD170477047002001E001C1121F9C
:101DF000002AFBD170472DE9F04116460F460446F4
:101E0000002503E03946B047641C6D1C207800288B
:101E1000F8D12846BDE8F08110B504460420FFF74C
:101E2000ABF80148046010BD1800002070B50546ED
:101E300000244FF47A7603E0304600F005F8641C85
:101E4000AC42F9D370BD000070B54FF0E025002121
:101E50006C69094AAB6912685043AA699A42FCD07E
:101E600002D2A3EB020302E0A4EB020633441944BE
:101E700013468142F1D370BD1800002003490A685F
:101E80005206FCD5C2B24A60704700000010014003
:101E90002DED028BFEF75CFD0723022208214FF493
:101EA000A870FFF7C1FBA820FFF7B6FF4FF4E130A1
:101EB00000F0B2F8FFF7DEFAFFF76EFAFEF72CFB40
:101EC000294C6068FEF75FFA9FED288B53EC182BC6
:101ED000FEF778F9FEF764FA024621780020FEF753
:101EE00055FB6068FEF74FFA53EC182BFEF76AF9C2
:101EF000FEF756FA0146D4ED030A94ED020A207863
:101F0000FEF764FBFFF7F0FA1AA0FFF75DFF23A0CE
:101F1000FFF75AFF2BA0FFF757FF0025304C012693
:101F20000020FFF767FA012805D1FFF733FB60B106
:101F30002CA0FFF749FFD4F8A40298B10020C4F800
:101F4000A4026420FFF772FFEAE7C4F8A85229A0B0
:101F5000FFF73AFF04480321401CFFF721FBC4F8B8
:101F6000A862E8E70120EAE70000002028D53E1D2E
:101F70008F79254053544D333246343037205050FA
:101F80004D2047656E657261746F7220496E697489
:101F900069616C697A65642E0D0A000050756C7376
:101FA000652057696474683A20353075732028318C
:101FB000306B487A206571756976616C656E74293D
:101FC0000D0A00005072657373204B455930207420
:101FD0006F2073656E6420646174612E0D0A0000C9
:101FE0000080424253797374656D20427573792E77
:101FF0000D0A00004B4559302050726573736564BB
:102000003A2053656E64696E672050504D204461DC
:1020100074612E2E2E0D0A000B4910B5094AC1E934
:10202000002000208860C860086188610C20486139
:102030000846FFF7EFF8BDE81040012203490248C7
:10204000FFF758B900100140F40000201C000020E8
:102050000000000000000000010203040607080958
:102060000000000001020304882000080000002096
:102070002C000000D81D0008B42000082C0000200F
:1020800084050000E81D000800AA551298AB020064
:1020900000000000000000000024F4000000000028
:1020A000000000000000000000000000010000002F
:0420B000000000002C
:040000050800018965
:00000001FF
